{
  "contractName": "CourseMarketplace",
  "abi": [
    {
      "inputs": [],
      "stateMutability": "nonpayable",
      "type": "constructor"
    },
    {
      "inputs": [],
      "name": "CourseHasOwner",
      "type": "error"
    },
    {
      "stateMutability": "payable",
      "type": "receive"
    },
    {
      "inputs": [
        {
          "internalType": "uint256",
          "name": "amount",
          "type": "uint256"
        }
      ],
      "name": "withdraw",
      "outputs": [],
      "stateMutability": "nonpayable",
      "type": "function"
    },
    {
      "inputs": [],
      "name": "emergencyWithdraw",
      "outputs": [],
      "stateMutability": "nonpayable",
      "type": "function"
    },
    {
      "inputs": [],
      "name": "selfDestruct",
      "outputs": [],
      "stateMutability": "nonpayable",
      "type": "function"
    },
    {
      "inputs": [],
      "name": "stopContract",
      "outputs": [],
      "stateMutability": "nonpayable",
      "type": "function"
    },
    {
      "inputs": [],
      "name": "resumeContract",
      "outputs": [],
      "stateMutability": "nonpayable",
      "type": "function"
    },
    {
      "inputs": [
        {
          "internalType": "bytes16",
          "name": "courseId",
          "type": "bytes16"
        },
        {
          "internalType": "bytes32",
          "name": "proof",
          "type": "bytes32"
        }
      ],
      "name": "purchaseCourse",
      "outputs": [],
      "stateMutability": "payable",
      "type": "function"
    },
    {
      "inputs": [
        {
          "internalType": "bytes32",
          "name": "courseHash",
          "type": "bytes32"
        }
      ],
      "name": "repurchaseCourse",
      "outputs": [],
      "stateMutability": "payable",
      "type": "function"
    },
    {
      "inputs": [
        {
          "internalType": "bytes32",
          "name": "courseHash",
          "type": "bytes32"
        }
      ],
      "name": "activateCourse",
      "outputs": [],
      "stateMutability": "nonpayable",
      "type": "function"
    },
    {
      "inputs": [
        {
          "internalType": "bytes32",
          "name": "courseHash",
          "type": "bytes32"
        }
      ],
      "name": "deactivateCourse",
      "outputs": [],
      "stateMutability": "nonpayable",
      "type": "function"
    },
    {
      "inputs": [
        {
          "internalType": "address",
          "name": "newOwner",
          "type": "address"
        }
      ],
      "name": "transferOwnership",
      "outputs": [],
      "stateMutability": "nonpayable",
      "type": "function"
    },
    {
      "inputs": [],
      "name": "getCourseCount",
      "outputs": [
        {
          "internalType": "uint256",
          "name": "",
          "type": "uint256"
        }
      ],
      "stateMutability": "view",
      "type": "function"
    },
    {
      "inputs": [
        {
          "internalType": "uint256",
          "name": "index",
          "type": "uint256"
        }
      ],
      "name": "getCourseHashAtIndex",
      "outputs": [
        {
          "internalType": "bytes32",
          "name": "",
          "type": "bytes32"
        }
      ],
      "stateMutability": "view",
      "type": "function"
    },
    {
      "inputs": [
        {
          "internalType": "bytes32",
          "name": "courseHash",
          "type": "bytes32"
        }
      ],
      "name": "getCourseByHash",
      "outputs": [
        {
          "components": [
            {
              "internalType": "uint256",
              "name": "id",
              "type": "uint256"
            },
            {
              "internalType": "uint256",
              "name": "price",
              "type": "uint256"
            },
            {
              "internalType": "bytes32",
              "name": "proof",
              "type": "bytes32"
            },
            {
              "internalType": "address",
              "name": "owner",
              "type": "address"
            },
            {
              "internalType": "enum CourseMarketplace.State",
              "name": "state",
              "type": "uint8"
            }
          ],
          "internalType": "struct CourseMarketplace.Course",
          "name": "",
          "type": "tuple"
        }
      ],
      "stateMutability": "view",
      "type": "function"
    },
    {
      "inputs": [],
      "name": "getContractOwner",
      "outputs": [
        {
          "internalType": "address",
          "name": "",
          "type": "address"
        }
      ],
      "stateMutability": "view",
      "type": "function"
    }
  ],
  "bytecode": "0x60806040526000600360146101000a81548160ff02191690831515021790555034801561002b57600080fd5b5061003b3361004060201b60201c565b610084565b80600360006101000a81548173ffffffffffffffffffffffffffffffffffffffff021916908373ffffffffffffffffffffffffffffffffffffffff16021790555050565b611e37806100936000396000f3fe6080604052600436106100e15760003560e01c8063935d7e6d1161007f578063c4bc5da511610059578063c4bc5da514610282578063d76821cb14610299578063db2e21bc146102b5578063f2fde38b146102cc576100e8565b8063935d7e6d1461021757806396cfda06146102405780639cb8a26a1461026b576100e8565b8063442890d5116100bb578063442890d5146101565780636136e1eb1461018157806362e4e6ac1461019d5780636d11290b146101da576100e8565b806312253a6c146100ed5780632e1a7d4d14610104578063392625721461012d576100e8565b366100e857005b600080fd5b3480156100f957600080fd5b506101026102f5565b005b34801561011057600080fd5b5061012b60048036038101906101269190611305565b610387565b005b34801561013957600080fd5b50610154600480360381019061014f9190611368565b610510565b005b34801561016257600080fd5b5061016b61068c565b60405161017891906113d6565b60405180910390f35b61019b60048036038101906101969190611368565b6106b6565b005b3480156101a957600080fd5b506101c460048036038101906101bf9190611368565b61085d565b6040516101d191906114fd565b60405180910390f35b3480156101e657600080fd5b5061020160048036038101906101fc9190611305565b610938565b60405161020e9190611527565b60405180910390f35b34801561022357600080fd5b5061023e60048036038101906102399190611368565b610955565b005b34801561024c57600080fd5b50610255610bb0565b6040516102629190611551565b60405180910390f35b34801561027757600080fd5b50610280610bba565b005b34801561028e57600080fd5b50610297610cb9565b005b6102b360048036038101906102ae91906115c4565b610d4b565b005b3480156102c157600080fd5b506102ca610f3b565b005b3480156102d857600080fd5b506102f360048036038101906102ee9190611630565b6110d0565b005b6102fd61068c565b73ffffffffffffffffffffffffffffffffffffffff163373ffffffffffffffffffffffffffffffffffffffff161461036a576040517f08c379a0000000000000000000000000000000000000000000000000000000008152600401610361906116e0565b60405180910390fd5b6001600360146101000a81548160ff021916908315150217905550565b61038f61068c565b73ffffffffffffffffffffffffffffffffffffffff163373ffffffffffffffffffffffffffffffffffffffff16146103fc576040517f08c379a00000000000000000000000000000000000000000000000000000000081526004016103f3906116e0565b60405180910390fd5b80471161043e576040517f08c379a000000000000000000000000000000000000000000000000000000000815260040161043590611772565b60405180910390fd5b6000600360009054906101000a900473ffffffffffffffffffffffffffffffffffffffff1673ffffffffffffffffffffffffffffffffffffffff1682604051610486906117c3565b60006040518083038185875af1925050503d80600081146104c3576040519150601f19603f3d011682016040523d82523d6000602084013e6104c8565b606091505b505090508061050c576040517f08c379a000000000000000000000000000000000000000000000000000000000815260040161050390611824565b60405180910390fd5b5050565b61051861068c565b73ffffffffffffffffffffffffffffffffffffffff163373ffffffffffffffffffffffffffffffffffffffff1614610585576040517f08c379a000000000000000000000000000000000000000000000000000000000815260040161057c906116e0565b60405180910390fd5b61058e81611151565b6105cd576040517f08c379a00000000000000000000000000000000000000000000000000000000081526004016105c490611890565b60405180910390fd5b60008060008381526020019081526020016000209050600060028111156105f7576105f661141e565b5b8160030160149054906101000a900460ff16600281111561061b5761061a61141e565b5b1461065b576040517f08c379a000000000000000000000000000000000000000000000000000000000815260040161065290611922565b60405180910390fd5b60018160030160146101000a81548160ff021916908360028111156106835761068261141e565b5b02179055505050565b6000600360009054906101000a900473ffffffffffffffffffffffffffffffffffffffff16905090565b600360149054906101000a900460ff1615610706576040517f08c379a00000000000000000000000000000000000000000000000000000000081526004016106fd9061198e565b60405180910390fd5b61070f81611151565b61074e576040517f08c379a000000000000000000000000000000000000000000000000000000000815260040161074590611890565b60405180910390fd5b610757816111bf565b610796576040517f08c379a000000000000000000000000000000000000000000000000000000000815260040161078d90611a20565b60405180910390fd5b600080600083815260200190815260200160002090506002808111156107bf576107be61141e565b5b8160030160149054906101000a900460ff1660028111156107e3576107e261141e565b5b14610823576040517f08c379a000000000000000000000000000000000000000000000000000000000815260040161081a90611ab2565b60405180910390fd5b60008160030160146101000a81548160ff0219169083600281111561084b5761084a61141e565b5b02179055503481600101819055505050565b610865611270565b6000808381526020019081526020016000206040518060a00160405290816000820154815260200160018201548152602001600282015481526020016003820160009054906101000a900473ffffffffffffffffffffffffffffffffffffffff1673ffffffffffffffffffffffffffffffffffffffff1673ffffffffffffffffffffffffffffffffffffffff1681526020016003820160149054906101000a900460ff16600281111561091b5761091a61141e565b5b600281111561092d5761092c61141e565b5b815250509050919050565b600060016000838152602001908152602001600020549050919050565b61095d61068c565b73ffffffffffffffffffffffffffffffffffffffff163373ffffffffffffffffffffffffffffffffffffffff16146109ca576040517f08c379a00000000000000000000000000000000000000000000000000000000081526004016109c1906116e0565b60405180910390fd5b6109d381611151565b610a12576040517f08c379a0000000000000000000000000000000000000000000000000000000008152600401610a0990611890565b60405180910390fd5b6000806000838152602001908152602001600020905060006002811115610a3c57610a3b61141e565b5b8160030160149054906101000a900460ff166002811115610a6057610a5f61141e565b5b14610aa0576040517f08c379a0000000000000000000000000000000000000000000000000000000008152600401610a9790611b44565b60405180910390fd5b60008160030160009054906101000a900473ffffffffffffffffffffffffffffffffffffffff1673ffffffffffffffffffffffffffffffffffffffff168260010154604051610aee906117c3565b60006040518083038185875af1925050503d8060008114610b2b576040519150601f19603f3d011682016040523d82523d6000602084013e610b30565b606091505b5050905080610b74576040517f08c379a0000000000000000000000000000000000000000000000000000000008152600401610b6b90611bb0565b60405180910390fd5b60028260030160146101000a81548160ff02191690836002811115610b9c57610b9b61141e565b5b021790555060008260010181905550505050565b6000600254905090565b610bc261068c565b73ffffffffffffffffffffffffffffffffffffffff163373ffffffffffffffffffffffffffffffffffffffff1614610c2f576040517f08c379a0000000000000000000000000000000000000000000000000000000008152600401610c26906116e0565b60405180910390fd5b600360149054906101000a900460ff16610c7e576040517f08c379a0000000000000000000000000000000000000000000000000000000008152600401610c7590611c42565b60405180910390fd5b600360009054906101000a900473ffffffffffffffffffffffffffffffffffffffff1673ffffffffffffffffffffffffffffffffffffffff16ff5b610cc161068c565b73ffffffffffffffffffffffffffffffffffffffff163373ffffffffffffffffffffffffffffffffffffffff1614610d2e576040517f08c379a0000000000000000000000000000000000000000000000000000000008152600401610d25906116e0565b60405180910390fd5b6000600360146101000a81548160ff021916908315150217905550565b600360149054906101000a900460ff1615610d9b576040517f08c379a0000000000000000000000000000000000000000000000000000000008152600401610d929061198e565b60405180910390fd5b60008233604051602001610db0929190611ccb565b604051602081830303815290604052805190602001209050610dd1816111bf565b15610e08576040517fb0fc2d9700000000000000000000000000000000000000000000000000000000815260040160405180910390fd5b600060026000815480929190610e1d90611d26565b9190505590506040518060a001604052808281526020013481526020018481526020013373ffffffffffffffffffffffffffffffffffffffff16815260200160006002811115610e7057610e6f61141e565b5b81525060008084815260200190815260200160002060008201518160000155602082015181600101556040820151816002015560608201518160030160006101000a81548173ffffffffffffffffffffffffffffffffffffffff021916908373ffffffffffffffffffffffffffffffffffffffff16021790555060808201518160030160146101000a81548160ff02191690836002811115610f1557610f1461141e565b5b021790555090505081600160008381526020019081526020016000208190555050505050565b610f4361068c565b73ffffffffffffffffffffffffffffffffffffffff163373ffffffffffffffffffffffffffffffffffffffff1614610fb0576040517f08c379a0000000000000000000000000000000000000000000000000000000008152600401610fa7906116e0565b60405180910390fd5b600360149054906101000a900460ff16610fff576040517f08c379a0000000000000000000000000000000000000000000000000000000008152600401610ff690611c42565b60405180910390fd5b6000600360009054906101000a900473ffffffffffffffffffffffffffffffffffffffff1673ffffffffffffffffffffffffffffffffffffffff1647604051611047906117c3565b60006040518083038185875af1925050503d8060008114611084576040519150601f19603f3d011682016040523d82523d6000602084013e611089565b606091505b50509050806110cd576040517f08c379a00000000000000000000000000000000000000000000000000000000081526004016110c490611de1565b60405180910390fd5b50565b6110d861068c565b73ffffffffffffffffffffffffffffffffffffffff163373ffffffffffffffffffffffffffffffffffffffff1614611145576040517f08c379a000000000000000000000000000000000000000000000000000000000815260040161113c906116e0565b60405180910390fd5b61114e8161122c565b50565b60008073ffffffffffffffffffffffffffffffffffffffff1660008084815260200190815260200160002060030160009054906101000a900473ffffffffffffffffffffffffffffffffffffffff1673ffffffffffffffffffffffffffffffffffffffff1614159050919050565b60003373ffffffffffffffffffffffffffffffffffffffff1660008084815260200190815260200160002060030160009054906101000a900473ffffffffffffffffffffffffffffffffffffffff1673ffffffffffffffffffffffffffffffffffffffff16149050919050565b80600360006101000a81548173ffffffffffffffffffffffffffffffffffffffff021916908373ffffffffffffffffffffffffffffffffffffffff16021790555050565b6040518060a00160405280600081526020016000815260200160008019168152602001600073ffffffffffffffffffffffffffffffffffffffff168152602001600060028111156112c4576112c361141e565b5b81525090565b600080fd5b6000819050919050565b6112e2816112cf565b81146112ed57600080fd5b50565b6000813590506112ff816112d9565b92915050565b60006020828403121561131b5761131a6112ca565b5b6000611329848285016112f0565b91505092915050565b6000819050919050565b61134581611332565b811461135057600080fd5b50565b6000813590506113628161133c565b92915050565b60006020828403121561137e5761137d6112ca565b5b600061138c84828501611353565b91505092915050565b600073ffffffffffffffffffffffffffffffffffffffff82169050919050565b60006113c082611395565b9050919050565b6113d0816113b5565b82525050565b60006020820190506113eb60008301846113c7565b92915050565b6113fa816112cf565b82525050565b61140981611332565b82525050565b611418816113b5565b82525050565b7f4e487b7100000000000000000000000000000000000000000000000000000000600052602160045260246000fd5b6003811061145e5761145d61141e565b5b50565b600081905061146f8261144d565b919050565b600061147f82611461565b9050919050565b61148f81611474565b82525050565b60a0820160008201516114ab60008501826113f1565b5060208201516114be60208501826113f1565b5060408201516114d16040850182611400565b5060608201516114e4606085018261140f565b5060808201516114f76080850182611486565b50505050565b600060a0820190506115126000830184611495565b92915050565b61152181611332565b82525050565b600060208201905061153c6000830184611518565b92915050565b61154b816112cf565b82525050565b60006020820190506115666000830184611542565b92915050565b60007fffffffffffffffffffffffffffffffff0000000000000000000000000000000082169050919050565b6115a18161156c565b81146115ac57600080fd5b50565b6000813590506115be81611598565b92915050565b600080604083850312156115db576115da6112ca565b5b60006115e9858286016115af565b92505060206115fa85828601611353565b9150509250929050565b61160d816113b5565b811461161857600080fd5b50565b60008135905061162a81611604565b92915050565b600060208284031215611646576116456112ca565b5b60006116548482850161161b565b91505092915050565b600082825260208201905092915050565b7f4f6e6c792074686520636f6e7472616374206f776e657220686176652061636360008201527f65737320746f2074686973206d6574686f640000000000000000000000000000602082015250565b60006116ca60328361165d565b91506116d58261166e565b604082019050919050565b600060208201905081810360008301526116f9816116bd565b9050919050565b7f416d6f756e7420746f207769746864726177206973206869676865722074686160008201527f6e2074686520636f6e74726163742062616c616e636500000000000000000000602082015250565b600061175c60368361165d565b915061176782611700565b604082019050919050565b6000602082019050818103600083015261178b8161174f565b9050919050565b600081905092915050565b50565b60006117ad600083611792565b91506117b88261179d565b600082019050919050565b60006117ce826117a0565b9150819050919050565b7f57746864726177207472616e73616374696f6e206661696c6564000000000000600082015250565b600061180e601a8361165d565b9150611819826117d8565b602082019050919050565b6000602082019050818103600083015261183d81611801565b9050919050565b7f436f75727365206973206e6f7420637265617465640000000000000000000000600082015250565b600061187a60158361165d565b915061188582611844565b602082019050919050565b600060208201905081810360008301526118a98161186d565b9050919050565b7f436f75727365206e6565647320746f206265207075726368617365642066697260008201527f7374206265666f72652069742069732061637469766174656400000000000000602082015250565b600061190c60398361165d565b9150611917826118b0565b604082019050919050565b6000602082019050818103600083015261193b816118ff565b9050919050565b7f436f6e747261637420686173206265656e2073746f7070656400000000000000600082015250565b600061197860198361165d565b915061198382611942565b602082019050919050565b600060208201905081810360008301526119a78161196b565b9050919050565b7f596f7520686176656e2774207075726368617365207468697320636f7572736560008201527f20617420616c6c00000000000000000000000000000000000000000000000000602082015250565b6000611a0a60278361165d565b9150611a15826119ae565b604082019050919050565b60006020820190508181036000830152611a39816119fd565b9050919050565b7f4f6e6c7920646561637469766174656420636f75727365732063616e2062652060008201527f7265707572636861736564000000000000000000000000000000000000000000602082015250565b6000611a9c602b8361165d565b9150611aa782611a40565b604082019050919050565b60006020820190508181036000830152611acb81611a8f565b9050919050565b7f436f75727365206e6565647320746f206265207075726368617365642066697260008201527f7374206265666f72652069742069732064656163746976617465640000000000602082015250565b6000611b2e603b8361165d565b9150611b3982611ad2565b604082019050919050565b60006020820190508181036000830152611b5d81611b21565b9050919050565b7f5472616e73666572206661696c65640000000000000000000000000000000000600082015250565b6000611b9a600f8361165d565b9150611ba582611b64565b602082019050919050565b60006020820190508181036000830152611bc981611b8d565b9050919050565b7f54686973207472616e73616374696f6e20697320706f737369626c65206f6e6c60008201527f79207768656e20636f6e7472616374206973206e6f742073746f707065640000602082015250565b6000611c2c603e8361165d565b9150611c3782611bd0565b604082019050919050565b60006020820190508181036000830152611c5b81611c1f565b9050919050565b6000819050919050565b611c7d611c788261156c565b611c62565b82525050565b60008160601b9050919050565b6000611c9b82611c83565b9050919050565b6000611cad82611c90565b9050919050565b611cc5611cc0826113b5565b611ca2565b82525050565b6000611cd78285611c6c565b601082019150611ce78284611cb4565b6014820191508190509392505050565b7f4e487b7100000000000000000000000000000000000000000000000000000000600052601160045260246000fd5b6000611d31826112cf565b91507fffffffffffffffffffffffffffffffffffffffffffffffffffffffffffffffff821415611d6457611d63611cf7565b5b600182019050919050565b7f456d657267656e63792057746864726177207472616e73616374696f6e20666160008201527f696c656400000000000000000000000000000000000000000000000000000000602082015250565b6000611dcb60248361165d565b9150611dd682611d6f565b604082019050919050565b60006020820190508181036000830152611dfa81611dbe565b905091905056fea26469706673582212209f8d7295a1716b9910e4a81459dd49899412b7a3309282ce6d8116cc9f12e91c64736f6c634300080a0033",
  "immutableReferences": {},
  "source": "// SPDX-License-Identifier: MIT\r\npragma solidity >=0.4.22 <0.9.0;\r\n\r\ncontract CourseMarketplace {\r\n    // Mapping of course hash to course\r\n    mapping(bytes32 => Course) private ownedCourses;\r\n\r\n    // Mapping of courseID to course hash\r\n    mapping(uint256 => bytes32) private ownedCourseHash;\r\n\r\n    uint256 private totalOwnedCourses;\r\n\r\n    enum State {\r\n        Purchased,\r\n        Activated,\r\n        Deactivated\r\n    }\r\n\r\n    struct Course {\r\n        uint256 id; // 32\r\n        uint256 price; // 32\r\n        bytes32 proof; // 32\r\n        address owner; // 20\r\n        State state; // 1\r\n    }\r\n\r\n    address payable private owner;\r\n\r\n    bool isStopped = false;\r\n\r\n    constructor() {\r\n        setContractOwner(msg.sender);\r\n    }\r\n\r\n    /// You already own the course\r\n    error CourseHasOwner();\r\n\r\n    // courseId = 10 = 0x00000000000000000000000000003130\r\n    // proof = 0x0000000000000000000000000000313000000000000000000000000000003130\r\n\r\n    modifier onlyOwner() {\r\n        require(\r\n            msg.sender == getContractOwner(),\r\n            \"Only the contract owner have access to this method\"\r\n        );\r\n        _;\r\n    }\r\n\r\n    modifier onlyWhenNotStopped() {\r\n        require(!isStopped, \"Contract has been stopped\");\r\n        _;\r\n    }\r\n\r\n    modifier onlyWhenStopped() {\r\n        require(\r\n            isStopped,\r\n            \"This transaction is possible only when contract is not stopped\"\r\n        );\r\n        _;\r\n    }\r\n\r\n    receive() external payable {}\r\n\r\n    function withdraw(uint256 amount) external onlyOwner {\r\n        require(address(this).balance > amount, \"Amount to withdraw is higher than the contract balance\");\r\n\r\n        (bool success, ) = owner.call{value: amount}(\"\");\r\n        require(success, \"Wthdraw transaction failed\");\r\n    }\r\n\r\n    function emergencyWithdraw() external onlyOwner onlyWhenStopped {\r\n        (bool success, ) = owner.call{value: address(this).balance}(\"\");\r\n        require(success, \"Emergency Wthdraw transaction failed\");\r\n    }\r\n\r\n    function selfDestruct() external onlyOwner onlyWhenStopped {\r\n        selfdestruct(owner);\r\n    }\r\n\r\n    function stopContract() external onlyOwner {\r\n        isStopped = true;\r\n    }\r\n\r\n    function resumeContract() external onlyOwner {\r\n        isStopped = false;\r\n    }\r\n\r\n    function purchaseCourse(bytes16 courseId, bytes32 proof)\r\n        external\r\n        payable\r\n        onlyWhenNotStopped\r\n    {\r\n        bytes32 courseHash = keccak256(abi.encodePacked(courseId, msg.sender));\r\n\r\n        if (hasCourseOwnership(courseHash)) {\r\n            revert CourseHasOwner();\r\n        }\r\n\r\n        uint256 id = totalOwnedCourses++;\r\n\r\n        ownedCourses[courseHash] = Course({\r\n            id: id,\r\n            price: msg.value,\r\n            proof: proof,\r\n            owner: msg.sender,\r\n            state: State.Purchased\r\n        });\r\n\r\n        ownedCourseHash[id] = courseHash;\r\n    }\r\n\r\n    function repurchaseCourse(bytes32 courseHash)\r\n        external\r\n        payable\r\n        onlyWhenNotStopped\r\n    {\r\n        require(isCourseCreated(courseHash), \"Course is not created\");\r\n\r\n        require(\r\n            hasCourseOwnership(courseHash),\r\n            \"You haven't purchase this course at all\"\r\n        );\r\n\r\n        Course storage course = ownedCourses[courseHash];\r\n\r\n        require(\r\n            course.state == State.Deactivated,\r\n            \"Only deactivated courses can be repurchased\"\r\n        );\r\n\r\n        course.state = State.Purchased;\r\n        course.price = msg.value;\r\n    }\r\n\r\n    function activateCourse(bytes32 courseHash) external onlyOwner {\r\n        require(isCourseCreated(courseHash), \"Course is not created\");\r\n\r\n        Course storage course = ownedCourses[courseHash];\r\n\r\n        require(\r\n            course.state == State.Purchased,\r\n            \"Course needs to be purchased first before it is activated\"\r\n        );\r\n\r\n        course.state = State.Activated;\r\n    }\r\n\r\n    function deactivateCourse(bytes32 courseHash) external onlyOwner {\r\n        // Before deactivating, make sure you send back the course price to the buyer.\r\n        require(isCourseCreated(courseHash), \"Course is not created\");\r\n\r\n        Course storage course = ownedCourses[courseHash];\r\n\r\n        require(\r\n            course.state == State.Purchased,\r\n            \"Course needs to be purchased first before it is deactivated\"\r\n        );\r\n\r\n        (bool success, ) = course.owner.call{value: course.price}(\"\");\r\n\r\n        require(success, \"Transfer failed\");\r\n\r\n        course.state = State.Deactivated;\r\n        course.price = 0;\r\n    }\r\n\r\n    function transferOwnership(address newOwner) external onlyOwner {\r\n        setContractOwner(newOwner);\r\n    }\r\n\r\n    function getCourseCount() external view returns (uint256) {\r\n        return totalOwnedCourses;\r\n    }\r\n\r\n    function getCourseHashAtIndex(uint256 index)\r\n        external\r\n        view\r\n        returns (bytes32)\r\n    {\r\n        return ownedCourseHash[index];\r\n    }\r\n\r\n    function getCourseByHash(bytes32 courseHash)\r\n        external\r\n        view\r\n        returns (Course memory)\r\n    {\r\n        return ownedCourses[courseHash];\r\n    }\r\n\r\n    function getContractOwner() public view returns (address) {\r\n        return owner;\r\n    }\r\n\r\n    function setContractOwner(address newOwner) private {\r\n        owner = payable(newOwner);\r\n    }\r\n\r\n    function isCourseCreated(bytes32 courseHash) private view returns (bool) {\r\n        return\r\n            ownedCourses[courseHash].owner !=\r\n            0x0000000000000000000000000000000000000000;\r\n    }\r\n\r\n    function hasCourseOwnership(bytes32 courseHash)\r\n        private\r\n        view\r\n        returns (bool)\r\n    {\r\n        return ownedCourses[courseHash].owner == msg.sender;\r\n    }\r\n}\r\n\r\n/*\r\n\r\nbytes16 = 32 characters\r\nbytes32 = 64 characters\r\n\r\n */\r\n",
  "sourcePath": "C:\\Users\\LanreAkintayo\\Visual Studio code projects\\udemy_clone\\contracts\\CourseMarketplace.sol",
  "compiler": {
    "name": "solc",
    "version": "0.8.10+commit.fc410830.Emscripten.clang"
  },
  "schemaVersion": "3.4.4",
  "updatedAt": "2022-03-25T15:05:41.350Z",
  "devdoc": {
    "kind": "dev",
    "methods": {},
    "version": 1
  },
  "userdoc": {
    "errors": {
      "CourseHasOwner()": [
        {
          "notice": "You already own the course"
        }
      ]
    },
    "kind": "user",
    "methods": {},
    "version": 1
  }
}